:1001180010083F065B4F666D7D077F6F777C395E01
:020128007971EB
:0B012B00EF1FAC0670011E4C70F622A6
:10008F00E4FBFAE4FAFBEA7063EBB40800505D900E
:10009F0000A5F82828730200BD0200C50200CD029A
:1000AF0000D50200DD0200E50200ED0200F5D2A24C
:1000BF00D2A3D2A48036C2A2D2A3D2A4802ED2A21F
:1000CF00C2A3D2A48026C2A2C2A3D2A4801ED2A24F
:1000DF00D2A3C2A48016C2A2D2A3C2A4800ED2A25F
:1000EF00C2A3C2A48006C2A2C2A3C2A474082BF8E2
:1000FF00E6F5807FC87E0012012B0BBB00010AEBD7
:08010F0064084A7081020092AD
:0101170022C5
:03000000020003F8
:0C000300787FE4F6D8FD75811702004AF2
:10000F0002008FE493A3F8E493A34003F68001F278
:10001F0008DFF48029E493A3F85407240CC8C333F2
:10002F00C4540F4420C8834004F456800146F6DFC1
:10003F00E4800B0102040810204080900118E47E38
:10004F00019360BCA3FF543F30E509541FFEE493B6
:10005F00A360010ECF54C025E060A840B8E493A37D
:10006F00FAE493A3F8E493A3C8C582C8CAC583CAA8
:10007F00F0A3C8C582C8CAC583CADFE9DEE780BE60
:01012A0000D4
:00000001FF
