:0B00C600EF1FAC0670011E4C70F6220C
:10000300EF64014E7002B2A0EF64024E7002B2A11F
:10001300EF64034E7002B2A2EF64044E7002B2A406
:10002300EF4E701DEC701AED24FE600D14600D147C
:10003300600D2403700BB2A022B2A122B2A222B29D
:02004300A422F5
:1000450030B10930B00630B20320B32020B1057EAF
:10005500007F012220B0057E007F022220B2057EAE
:10006500007F032220B3147E007F042230B10C30C0
:0C007500B00930B20630B303E4FEFF22F5
:10008100E4FBFA1200458F828E83EB65827003EAEE
:10009100658360EF7FE87E031200C61200458E8300
:1000A1008F82EB65827003EA65836007AD03AC0262
:0900B100120003AA83AB8280CA8D
:030000000200BA41
:0C00BA00787FE4F6D8FD75810702008114
:00000001FF
